:020000040800F2
:10000000C80A00200101000869100008BD0D0008A1
:1000100065100008ED0800085723000800000000E4
:10002000000000000000000000000000B117000800
:10003000DD0A00080000000079160008211A0008F7
:100040001B0100081B0100081B0100081B01000820
:100050001B0100081B0100081B0100083D0B0008E4
:100060001B0100081B0100081B0100081B01000800
:100070001B0100081B0100081B0100081B010008F0
:100080001B0100081B0100081B0100081B010008E0
:100090001B0100081B0100081B0100081B010008D0
:1000A0001B0100081B0100081B0100081B010008C0
:1000B000851A00081B010008BD1A00081B01000872
:1000C0001B0100081B0100081B0100081B010008A0
:1000D0001B010008ED1E00085D20000845210008F6
:1000E0001B0100081B0100081B010008DFF80CD0F1
:1000F00000F0EAFB00480047393C0008C80A00202D
:100100000648804706480047FEE7FEE7FEE7FEE7B1
:10011000FEE7FEE7FEE7FEE7FEE7FEE7251A00083A
:10012000ED0000080649074A0868504343F23902C7
:10013000104408604008704701490860704700009B
:10014000A00000206D4EC641D2B201E000F8012BA4
:10015000491EFBD270470022F6E710B513460A4647
:1001600004461946FFF7F0FF204610BDF0B480EAC0
:100170000102D40F4200B2EB410F02D20246084600
:1001800011464A0042D0C30DDDB2C1F3C752AD1AC9
:10019000202D35DAC1F3160141F4000204B15242B8
:1001A000C5F1200602FA06F12A411044B3EBD05FF4
:1001B00023D0C4B1012DA0EBC35009DCF0BC4FF03B
:1001C000004202EAC352DBB200F5000000F0D9BAE7
:1001D000400000F1807000EBC350A0F1807040EA55
:1001E000D170490009E0490841EAC071A0EBC35051
:1001F00000F50000400800EBC350F0BC00F0B8BAB6
:100200006142012202EB4101001BF6E7F0BC70479E
:1002100081F00041AAE780F00040A7E780EA0102F0
:1002200010B502F00043400022D04A001FD0010E5A
:1002300001EB1261C0F35600C2F3560240F4000015
:1002400042F40002A0FB022000047F39140400D015
:10025000401C50EA124001D44000491EC2B20C06B4
:1002600004EBD010401C4008802A02D003E000209C
:1002700010BD20F00100002900DA0020184310BD55
:1002800030B480EA010202F0004530F0004221F073
:10029000004013D090B1C30DD40DC2F31601C0F3CA
:1002A0001600E41A41F4000140F400027D3491424A
:1002B00001D3641C00E04900002C02DA30BC0020AD
:1002C00070474FF400000023914201D3891A034381
:1002D00040084FEA4101F7D151B1914202D14FF0AC
:1002E000004105E002D24FF0010101E06FF0010191
:1002F00003EBC450284430BC00F03ABA2DE9FE4F5D
:10030000804681EA0300C00F0C46009021F00041B6
:1003100023F00045B8EB0200A94105D24046214632
:1003200090461C460B46024623F00040104347D03F
:10033000270DC7F30A00C3F30A510290401A019037
:1003400040286BDAC3F3130040F4801B00989246F8
:1003500020B10023D2EB030A63EB0B0B0198594643
:10036000C0F14002504600F0D2F906460D46504614
:100370005946019A00F0EAF910EB080061410024A7
:1003800087EA115284EAE7731A4340D0009A62B3B5
:10039000019A012A4FEA075215DC001B61EB0201AA
:1003A0004FF0004202EA0752CDE90042001C41F53D
:1003B000801132462B4600F021FA03B0BDE8F08FE1
:1003C00040462146F9E7001B61EB0201001C41F5A4
:1003D000801300185B412018A2F5001747EB0301BA
:1003E00040EAD570B6196D4111E06D084FEA360646
:1003F00045EAC0754FEA0752001B61EB0201001C81
:1004000041F5801149084FEA300000195141324648
:100410002B4603B0BDE8F04F00F0E1B9009801228F
:1004200040000023D0EB020263EBE073009821460A
:100430004FEAE074B8EB000061EB0401E9E783F0F8
:1004400000435BE781F0004158E72DE9FE4F81EA68
:10045000030404F0004421F0004100944FF0000B2D
:1004600023F0004350EA01045ED052EA03045BD05B
:10047000C3F30A54C1F30A552C44A4F2F334019493
:10048000A0FB0254C1F3130141F48011C3F3130321
:1004900043F4801301FB024400FB034E840A970AD5
:1004A00044EA815447EA8357A4FB076802958D0A02
:1004B00005FB07854FEA932C04FB0C542705029D8E
:1004C0004FEA065847EA1637B5EB08056EEB070CFE
:1004D000870E920E47EA811742EA8312A7FB0201B8
:1004E000B6EB0B0164EB00042B0D43EA0C335E18F2
:1004F00044EB1C50DA465146E7FB0201C5F31304F6
:100500004FEA0B3343EA14534FEA0432019C43EAA7
:100510000603A4F10C040294009CCDE900B400F0A1
:100520006DF903B0BDE8F08F00200146F9E72DE931
:10053000F04D81EA030404F0004B21F0004514461D
:100540004FF0000A23F0004150EA050220D054EA9F
:1005500001021DD0C5F30A570246C5F31303C1F3C8
:100560001300C1F30A5640F4801543F48013A7EB3F
:100570000608101BD64608F2FD3873EB050002D3BF
:1005800008F1010801E092185B41B8F1000F03DAAD
:1005900000200146BDE8F08D00204FF48011064692
:1005A00084460EE0171B73EB050705D3121B63EBA4
:1005B000050306434CEA010C49084FEA3000921843
:1005C0005B4150EA0107EDD152EA030012D082EA02
:1005D000040083EA0501084305D0101BAB4106D295
:1005E0000122002306E000224FF0004302E06FF0FA
:1005F000010253101AEB06004CEB085110EB0A00F5
:1006000041EB0B01BDE8F04D00F0E9B8C10F80EA05
:10061000E0700844CA079623002100F0B2B8962380
:100620000022114600F0ADB820F00040C10DC0F32B
:10063000160040F400007F2901DA00207047962957
:1006400003DCC1F19601C840704796398840704775
:1006500030B5041E71F1000404DB4FF00044404249
:1006600064EB0101141E73F1000405DB1C464FF01E
:100670000043524263EB0403994208BF904230BDED
:1006800030B50B46014600202022012409E021FA62
:1006900002F59D4205D303FA02F5491B04FA02F55F
:1006A0002844151EA2F10102F1DC30BD2DE9F05FF6
:1006B0000546002092469B468846064681464024D1
:1006C0001BE0284641464746224600F02FF8534695
:1006D0005A46C01A914110D311461846224600F0DE
:1006E00016F82D1A67EB01084F462246012000211B
:1006F00000F00DF817EB00094E41201EA4F1010493
:10070000DFDC484631462A464346BDE8F09F202AB2
:1007100004DB203A00FA02F1002070479140C2F158
:10072000200320FA03F3194390407047202A04DB8A
:10073000203A21FA02F00021704721FA02F3D0405A
:10074000C2F120029140084319467047202A06DB77
:10075000CB17203A41FA02F043EAE07306E041FA8F
:1007600002F3D040C2F1200291400843194670477D
:100770000029A8BF7047401C490008BF20F00100B5
:10078000704710B4B0FA80FC00FA0CF050EA010493
:1007900004BF10BC704749B1CCF1200421FA04F425
:1007A00011FA0CF118BF012121430843A3EB0C01FE
:1007B000CB1D4FEA00614FEA102042BF002010BC61
:1007C000704700EBC35010440029A4BF10BC704711
:1007D000401C490008BF20F0010010BC704710B554
:1007E000141E73F1000408DA401C41F10001921854
:1007F0005B411A4301D120F0010010BD2DE9F04DFD
:1008000092469B4611B1B1FA81F202E0B0FA80F251
:1008100020329046FFF77BFF04460F4640EA0A006D
:1008200041EA0B0153465A46084313D0114653EA96
:10083000010019D0C8F140025046FFF777FF054686
:100840000E46504659464246FFF761FF084305D021
:10085000012004E020463946BDE8F08D0020054324
:1008600046EAE0762C4337430A986305E40AA0EB96
:1008700008000022FD0A44EA47540A3002D500204D
:100880000146E9E7010510196941DDE9084500194C
:100890006941BDE8F04DA2E7C1F30A52C1F313016B
:1008A00040F2FF3341F480119A4202DA00200146FF
:1008B000704740F233439A42A2F2334202DC524282
:1008C000FFF734BFFFF723BF064C074D06E0E06893
:1008D00040F0010394E8070098471034AC42F6D387
:1008E000FFF708FCACFA0008CCFA000800BFFEE7EE
:1008F00000F0805111B10349086001E002494860ED
:1009000070470000040402400000024021B1026868
:1009100042F00102026004E002684FF6FE731A40E2
:100920000260704701684FF6FE72114001600021BD
:10093000016041608160C1604B49884208D14A49E9
:100940000839496841F00F01474A083A51608AE086
:1009500045491431884208D143490839496841F072
:10096000F001414A083A51607DE03F492831884210
:1009700008D13D490839496841F470613A4A083A5A
:10098000516070E038493C31884208D13649083915
:10099000496841F47041344A083A516063E0324991
:1009A0005031884208D130490839496841F47021F2
:1009B0002D4A083A516056E02B496431884208D1EB
:1009C00029490839496841F47001274A083A5160B9
:1009D00049E025497831884208D1234908394968D6
:1009E00041F07061204A083A51603CE01F4988425A
:1009F00006D1011F096841F00F01021F116032E0AA
:100A00001A491431884208D11849091F096841F070
:100A1000F001164A121F116025E01449283188425E
:100A200008D11249091F096841F470610F4A121F69
:100A3000116018E00D493C31884208D10B49091F6B
:100A4000096841F47041094A121F11600BE007491F
:100A50005031884207D10549091F096841F47021C6
:100A6000024A121F11607047080002400804024049
:100A700001460020002201F0805313B1054B1A6893
:100A800001E0054B1A6802EA01030BB1012000E006
:100A900000207047000402400000024010B5002210
:100AA000026847F6F0739A430C6A8B6823430C691B
:100AB00023434C6923438C692343CC6923434C6A09
:100AC00023438C6A23431A430260CB6843600B685C
:100AD00083604B68C36010BD41607047704700B5CC
:100AE000034603E04FF47A7000F011F8181EA3F1EA
:100AF0000103F7D100BD10B5044603E04FF47A704E
:100B0000FFF7EDFF201EA4F10104F7D110BD00EBAB
:100B1000C001C9004FF0E02251610021916105211F
:100B2000116100BF4FF0E021096901F48031002913
:100B3000F8D004214FF0E0221161704710B5022077
:100B400000F010F828B1022000F006F80120014959
:100B5000087010BD91000020014908607047000036
:100B600014040140014600200022074B1B6803EAE1
:100B70000102054B14331B680B4013B10AB101206D
:100B800000E00020704700000004014000212349DC
:100B90008279002A3AD00A46126803689A430B46C3
:100BA0001A600A1D126803689A430B1D1A600279C5
:100BB00011440A6803681A430A60184A0832126826
:100BC00003689A43154B08331A601A1D12680368AC
:100BD0009A43124B0C331A604279102A0ED11A1F15
:100BE000126803681A430D4B08331A601A1D126805
:100BF00003681A43094B0C331A600DE00749427928
:100C000011440A6803681A430A6005E00279114436
:100C10000A6803689A430A607047000000040140B4
:100C200030B500228B071C0F0F2303FA04F20B4B85
:100C30008C1053F824309343084C8D1044F8253021
:100C400023468C1053F824308C07240F00FA04F448
:100C50002343024C8D1044F8253030BD080001407C
:100C60002DE9F04102460025002600200023002443
:100C7000002791F803C00CF00F0591F803C00CF0A9
:100C8000100CBCF1000F03D091F802C04CEA05052E
:100C900091F800C0BCF1000F31D0146800202BE0A7
:100CA0004FF0010C0CFA00F3B1F800C00CEA030697
:100CB0009E4220D183004FF00F0C0CFA03F7BC4387
:100CC00005FA03FC4CEA040491F803C0BCF1280FB8
:100CD00006D14FF0010C0CFA00FCC2F814C00AE077
:100CE00091F803C0BCF1480F05D14FF0010C0CFA8C
:100CF00000FCC2F810C0401C0828D1D31460B1F821
:100D000000C0BCF1FF0F34DD546800202EE000F17C
:100D1000080C4FF0010808FA0CF3B1F800C00CEA17
:100D200003069E4221D183004FF00F0C0CFA03F70B
:100D3000BC4305FA03FC4CEA040491F803C0BCF17F
:100D4000280F05D100F1080C08FA0CF8C2F814803D
:100D500091F803C0BCF1480F07D100F1080C4FF027
:100D6000010808FA0CF8C2F81080401C0828CED3FD
:100D70005460BDE8F0810246002093680B400BB13F
:100D8000012000E00020704702460020D3680B409D
:100D90000BB1012000E00020704741617047016104
:100DA00070474FF6FF710180022181700421C170EC
:100DB00070470AB1016100E04161704700BFFEE782
:100DC00010B50446012C16D11448007848B17020A3
:100DD0001349087000201149087012A001F0FAF8B8
:100DE0001BE035200E49087001200C49087012A044
:100DF00001F0F0F811E0022C0FD1FFF793F90D216B
:100E0000B0FBF1F201FB12001049085C04490870C4
:100E1000084601780EA001F0DDF810BD9A00002010
:100E2000950000205B4B65795D202D3E20736C653D
:100E300065700D0A000000005B4B65795D202D3E5A
:100E4000207374616E640D0A000000009CFA0008B3
:100E50005B4B65795D202D3E2072616E646F6D3A4B
:100E600025630D0A000000001FB50121052000F0D8
:100E700025FC4FF4A06000F031F948208DF80F00F8
:100E800003208DF80E000220ADF80C0003A91C48C9
:100E9000FFF7E6FE01210020FFF7C2FE02200190CD
:100EA00000208DF808000C208DF8090001208DF835
:100EB0000A0001A8FFF76AFE07208DF80000022053
:100EC0008DF8010000208DF8020001208DF803004C
:100ED000684600F0CBF800F021F80A49087008468F
:100EE00000780949087000F095FD08490860002065
:100EF0000749086007490870074908701FBD0000CE
:100F000000080140840000208500002088000020A7
:100F10008C000020900000209100002010B50221DC
:100F20000348FFF728FF08B9012010BD0020FCE7A7
:100F30000008014070B500F06DFD0446FFF7EEFFBC
:100F400005460026214800780020204908702048E6
:100F50000078854203D01E4805701E4804601D4875
:100F60000068201A142801D2002070BD1A480078A9
:100F7000854215D0184805702DB11848046000202E
:100F8000174908700CE01648007848B91348006803
:100F9000201AB0F5487F03D2012612A001F01AF8FA
:100FA0000D48007878B10E48007860B90B480068A9
:100FB000201AB0F5487F06D301200949087002269F
:100FC0000CA001F007F83046CFE7000091000020A8
:100FD0008400002088000020850000208C00002074
:100FE000900000205B4B65795D20636C69636B0D3D
:100FF0000A0000005B4B65795D206C6F6E670D0A1F
:101000000000000010B54FF400510848FFF7BCFE87
:1010100028B94FF400510548FFF7C1FE04E04FF432
:1010200000510248FFF7B9FE10BD0000001001405A
:1010300008B50121102000F041FB10208DF80300BD
:101040004002ADF8000003208DF802006946044814
:10105000FFF706FE4FF400510148FFF79EFE08BD62
:101060000010014000BFFEE77047000070B500218E
:1010700000230F22C47804B3154C246804F4E06400
:10108000C4F5E064210AC1F10403CA40447804FABB
:1010900003F184781440214309010E4C0678A155D0
:1010A000047804F01F050124AC4005786D11AD00F3
:1010B00005F1E025C5F8004109E0047804F01F05BA
:1010C0000124AC40044D0678761145F8264070BDE9
:1010D0000CED00E000E400E080E100E002490143A3
:1010E000024A1160704700000000FA050CED00E0B4
:1010F00000200CE0002106E00022064B03EBC013A9
:101100005A544A1CD1B28029F6DB421CD0B20828BE
:10111000F0DB7047A40000202DE9F04304460D46A3
:1011200016461F467F2C01DDBDE8F0833F2D00DD14
:10113000FAE7A119802902DDC4F18001CEB2E919D4
:10114000402902DDC5F14001CFB2284630E02346F8
:1011500029E04FEAE07C00EB5C7C4FEAEC0CDFF826
:101160005C8008EBCC1C1CF803C002464FEAE07818
:1011700000EB58784FEAE808A0EBC8094FF00108E7
:1011800008FA09F82CEA080C01464FEAE07800EB6F
:1011900058784FEAE808DFF8249009EBC81808F8F7
:1011A00003C0591CCBB2A1199942D2DC411CC8B270
:1011B000E9198142CBDC00BFB6E70000A4000020A3
:1011C00038B5002406E0002500E06D1CB5F57A7FF7
:1011D000FBD3641CB4F57A7FF5D30121082000F01D
:1011E0006DFA14208DF8030003208DF802004FF4EF
:1011F0008070ADF8000069460848FFF731FD4FF4F4
:101200000070ADF8000069460448FFF729FD012091
:1012100000F066F9012000F06FF938BD000C0140C4
:1012200070B50546002411E080212141294009B113
:10123000012100E00021084600F05EF9012000F0E5
:101240004FF9002000F04CF9601CC4B2082CEBDB15
:10125000012000F045F9002000F042F970BD10B502
:10126000012000F049F9012000F03AF9002000F0D7
:1012700043F9002000F034F910BD10B5002000F053
:101280003BF9012000F02CF9012000F035F910BDE8
:1012900010B5FFF795FFAE2000F03AF9D52000F029
:1012A00037F9802000F034F9A82000F031F93F2010
:1012B00000F02EF9D32000F02BF9002000F028F9DF
:1012C000402000F025F9A12000F022F9C82000F00C
:1012D0001FF9DA2000F01CF9122000F019F9812022
:1012E00000F016F9CF2000F013F9D92000F010F922
:1012F000F12000F00DF9DB2000F00AF9302000F0B9
:1013000007F9A42000F004F9A62000F001F98D20CF
:1013100000F0FEF8142000F0FBF8AF2000F0F8F821
:10132000FFF7E6FE00F0C8F810BD0000002011E055
:1013300000210BE0094A02EBC012525C82F0FF026E
:10134000064B03EBC0135A544A1CD1B28029F1DB7F
:10135000421CD0B20828EBDB70470000A40000203C
:1013600070B505460C46A01CC4B245F0B00000F0B4
:10137000CFF8102141EA141000F0CAF804F00F0071
:1013800000F0C6F870BD00002DE9F04707460C4696
:1013900090469946DDF820A07F2F01DDBDE8F0875B
:1013A0003F2C00DDFAE74B46424621463846FFF720
:1013B000B3FE002570E0002669E0B8197F2800DD43
:1013C00067E0E11704EB517105EBE101072900DD4E
:1013D000E4E72046E21704EB527205EBE202354BDC
:1013E00003EBC212BB19D25C2146E31704EB537323
:1013F000DB10A4EBC30305FB086C1AF80CC00CFA55
:1014000003FC42EA0C02E31704EB537305EBE3031E
:10141000DFF8A0C00CEBC31307EB060C03F80C209D
:10142000E11704EB517105EBE101491C072900DDCF
:101430002BE02046E21704EB527205EBE202521C4D
:101440001C4B03EBC212BB19D25C2146E31704EB21
:101450005373DB10A4EBC303C3F1080305FB086C53
:101460001AF80CC04CFA03FC42EA0C02E31704EB36
:10147000537305EBE3035B1CDFF838C00CEBC313BD
:1014800007EB060C03F80C2000BF701CC6B24645E3
:1014900093DB00BF681CC5B2A9F10100C11700EBC6
:1014A0005171012202EBE101A94284DC00F004F851
:1014B00000BF73E7A400002010B500240BE000215A
:1014C0002046FFF74DFF054901EBC410802100F0D5
:1014D0002FF8601CC4B2082CF1DB10BDA400002062
:1014E00010B5044622464FF480710248FFF761FCB4
:1014F00010BD0000000C014010B5044622464FF418
:1015000000710248FFF755FC10BD0000000C0140BF
:1015100010B50446FFF7A3FE7820FFF781FE0020F8
:10152000FFF77EFE2046FFF77BFEFFF7A6FE10BD0D
:1015300070B505460E46FFF792FE7820FFF770FE65
:101540004020FFF76DFE002404E0285DFFF768FEF1
:10155000601CC4B2B442F8DBFFF78FFE70BD000020
:1015600000B589B00121022000F098F80121042083
:1015700000F0A4F80121082000F0A0F818208DF850
:101580002300C020ADF8200003208DF8220008A918
:101590002248FFF765FB0320ADF8200008A920488A
:1015A000FFF75EFB1F4800F0DFFA0020ADF81A00DD
:1015B000ADF8160044F61F60ADF818004720ADF8EE
:1015C000140000208DF81C0005A9164800F01EFC30
:1015D00001A800F005FC6020ADF804000020ADF883
:1015E0000C000120ADF806000020ADF80A0001A9AA
:1015F0000C4800F015FB01A90A4800F063FB01A9A3
:10160000084800F0B7FA01A9064800F0ABFB012139
:10161000044800F06DFA09B000BD00000008014068
:10162000000C01400004004010B504462146024869
:1016300000F0E0FB10BD00000004004010B50446BF
:101640002146024800F0D8FB10BD00000004004015
:1016500010B504462146024800F0D0FB10BD000042
:101660000004004010B504462146024800F0C8FBC3
:1016700010BD0000000400407047000029B1064A78
:1016800052690243044B5A6104E0034A526982439F
:10169000014B5A61704700000010024029B1064A10
:1016A000D2690243044BDA6104E0034AD2698243FF
:1016B000014BDA61704700000010024029B1064A70
:1016C00092690243044B9A6104E0034A926982439F
:1016D000014B9A61704700000010024030B50021B4
:1016E0000022002400232D4D6D6805F00C0121B16E
:1016F000042905D0082923D105E0294D056022E001
:10170000274D05601FE0254D6D6805F47012234DCF
:101710006D6805F48034022505EB92421CB9214D19
:10172000554305600BE01D4D6D6805F400351DB196
:101730001C4D5543056002E0194D5543056002E01C
:10174000174D056000BF00BF144D6D6805F0F00136
:101750000909154D6B5C0568DD4045600F4D6D68EE
:1017600005F4E061090A104D6B5C4568DD40856059
:101770000A4D6D6805F46051C90A0B4D6B5C4568F4
:10178000DD40C560054D6D6805F44041890B074D8E
:101790006B5CC568B5FBF3F5056130BD0010024018
:1017A00000127A0000093D00000000201000002017
:1017B0007047000010B5064800F0AFF9A0F5FA70C8
:1017C000B42148434FF4FA6190FBF1F0C0B210BD70
:1017D0000004004010B5064800F0A2F9A0F5FA7028
:1017E000B42148434FF4FA6190FBF1F0C0B210BD50
:1017F0000004004010B5064800F095F9A0F5FA7015
:10180000B42148434FF4FA6190FBF1F0C0B210BD2F
:101810000004004010B5064800F088F9A0F5FA7001
:10182000B42148434FF4FA6190FBF1F0C0B210BD0F
:101830000004004010B5FFF793FE10BD2DE9F04104
:1018400004460A492046FEF71BFD80460849FEF77C
:10185000E5FC07460749FEF789FC0646FEF7E4FE6D
:1018600085B22846FFF7E0FEBDE8F0810000344372
:101870000000FA440000FA432DE9F04104460A4909
:101880002046FEF7FDFC80460849FEF7C7FC0746E8
:101890000749FEF76BFC0646FEF7C6FE85B22846F2
:1018A000FFF7CCFEBDE8F081000034430000FA44AD
:1018B0000000FA432DE9F04104460A492046FEF7AC
:1018C000DFFC80460849FEF7A9FC07460749FEF7FA
:1018D0004DFC0646FEF7A8FE85B22846FFF7B8FE87
:1018E000BDE8F081000034430000FA440000FA43F0
:1018F0002DE9F04104460A492046FEF7C1FC804626
:101900000849FEF78BFC07460749FEF72FFC064601
:10191000FEF78AFE85B22846FFF7A4FEBDE8F081F7
:10192000000034430000FA440000FA4310B500F010
:1019300001F810BD0CB500200190009033480068FC
:1019400040F480303149086000BF3048006800F43E
:10195000003000900198401C0190009818B901983F
:10196000B0F5A06FF1D12948006800F4003010B143
:101970000120009001E0002000900098012843D150
:101980002348006840F010002149086008460068BC
:1019900020F0030008600846006840F0020008607C
:1019A0001A48406819494860084640684860084637
:1019B000406840F4806048600846406820F47C102D
:1019C00048600846406840F4E810486008460068EF
:1019D00040F08070086000BF0C48006800F00070A4
:1019E0000028F9D00948406820F003000749486002
:1019F0000846406840F00200486000BF0348406865
:101A000000F00C000828F9D10CBD000000100240C5
:101A10000020024001480068704700005C00002080
:101A20007047000010B51348006840F001001149EC
:101A3000086008464068104908400E49486008465A
:101A400000680E4908400B4908600846006820F409
:101A5000802008600846406820F4FE0048604FF48B
:101A60001F008860FFF762FF4FF0006004490860C4
:101A700010BD0000001002400000FFF8FFFFF6FE5E
:101A800008ED00E010B50121880700F053F80128A7
:101A90000ED102210748FFF76EF9012804D106484C
:101AA0000088401C044908800121880700F01DF8C7
:101AB00010BD0000000801409800002010B5012171
:101AC000064800F037F840B10121044800F00DF855
:101AD00003480068401C0249086010BD000800402F
:101AE0005C000020CA4302827047CA4302827047EA
:101AF00021B1028842F00102028004E002884FF620
:101B0000FE731A40028070471AB183890B438381A8
:101B100002E083898B43838170470146888E70473A
:101B20000146088F70470146888F70470146B1F81B
:101B30004000704730B50246002000230024158A7B
:101B400005EA0103958905EA010413B10CB10120EE
:101B500000E0002030BD1AB183890B43838102E08D
:101B600083898B438381704701894FF6F872114056
:101B70000181704770B5002400220023058C4FF6C8
:101B8000FE7635400584028C8388048B4FF68F7572
:101B90002C40B51E2C400D882C43751E2A400D8903
:101BA0002A434D882A43144DA8420BD0134DA84216
:101BB00008D0134DA84205D0124DA84202D0124DB4
:101BC000A84213D14FF6F7752A404D892A434FF6A4
:101BD000FB752A408D882A434FF6FF652B404FF650
:101BE000FF552B408D892B43CD892B438380048364
:101BF000CD888586028470BD002C014000340140F0
:101C00000040014000440140004801400A460021D4
:101C1000018B4FF6F77319401143018370470000A1
:101C200070B5002400220023058C4FF6EF76354076
:101C30000584028C8388048B48F6FF752C404FF690
:101C4000FF452C400D884FF6FF7606EA05252C430C
:101C50004FF6DF752A400D8906EA05152A434D889F
:101C600006EA05152A43154DA84202D0144DA84294
:101C70001DD14FF67F752A404D894FF6FF7606EA53
:101C800005152A434FF6BF752A408D8806EA0515CB
:101C90002A434FF6FF352B404FF2FF752B408D89BD
:101CA00006EA85052B43CD8906EA85052B4383800B
:101CB0000483CD880587028470BD0000002C01409C
:101CC0000034014070B5002400220023058C4FF63B
:101CD000FF6635400584028C8388848B4FF68F75B0
:101CE0002C404FF6FC752C400D882C434FF6FF55C9
:101CF0002A400D894FF6FF7606EA05252A434D88CE
:101D000006EA05252A43154DA84202D0144DA842E3
:101D10001DD14FF2FF752A404D894FF6FF7606EA36
:101D200005252A434FF6FF352A408D8806EA05250A
:101D30002A434EF6FF752B404DF6FF752B408D89DB
:101D400006EA05152B43CD8906EA05152B4383804A
:101D50008483CD888587028470BD0000002C0140FB
:101D60000034014070B5002200230024058C4EF69B
:101D7000FF7635400584038C8488828B48F6FF7596
:101D80002A404FF6FF452A400D884FF6FF7606EAB7
:101D900005252A434DF6FF752B400D8906EA0535CA
:101DA0002B434D8806EA05352B430B4DA84202D044
:101DB0000A4DA84208D14BF6FF752C408D894FF68D
:101DC000FF7606EA85152C4384808283CD88A0F8AF
:101DD0004050038470BD0000002C014000340140DD
:101DE0000021018041808180C18001814181818108
:101DF000C18170478186704701877047818770472E
:101E0000A0F84010704781847047000000220288CB
:101E10001D4B98420ED01D4B98420BD0B0F1804F15
:101E200008D01B4B984205D01A4B984202D01A4B4F
:101E3000984204D14FF68F731A404B881A43174BC0
:101E4000984207D0164B984204D04FF6FF431A40F1
:101E5000CB881A4302808B8883850B8803850A4BC5
:101E600098420BD0094B984208D00E4B984205D0AF
:101E70000D4B984202D00D4B984201D10B7A03864C
:101E80000123838270470000002C01400034014090
:101E90000004004000080040000C0040001000401A
:101EA000001400400040014000440140004801404F
:101EB0004FF6FF71818000210180C1804180017255
:101EC00070470000014800787047000014000020AF
:101ED00005480078012804D100200349087001203A
:101EE00070470020FCE700001500002010B540F20C
:101EF0002551094800F06AF901280CD1064800F084
:101F000021FA0649087001200549087040F2255160
:101F1000014800F033F910BD0038014014000020E2
:101F20001500002000B587B001218803FFF7C6FB2C
:101F300001210420FFF7C2FB18208DF81B004FF48D
:101F40000070ADF8180003208DF81A0006A91F488C
:101F5000FEF786FE48208DF81B004FF48060ADF838
:101F6000180006A91948FEF77BFE4FF4E1300290F5
:101F70000020ADF814000C20ADF812000020ADF8E0
:101F80001000ADF80E00ADF80C0002A9104800F0EA
:101F90006DF9012240F225510D4800F041F94FF44E
:101FA000A060FFF79BF825208DF8040001208DF834
:101FB00007008DF805008DF8060001A8FFF756F818
:101FC0000121034800F0E9F807B000BD0008014016
:101FD000003801400FB400B59BB01DA8019002A8C5
:101FE000019A1C9900F0FCFF0020019002A800F06B
:101FF00013F81BB05DF814FB10B5044621460548E4
:1020000000F0A5F900BF8021024800F0D2F80028B6
:10201000F9D010BD0038014070B50446002504E039
:10202000605DFFF7E9FF681CC5B2605D0028F7D16D
:1020300070BD0000014800787047000016000020C5
:1020400005480078012804D10020034908700120C8
:1020500070470020FCE700001700002010B540F298
:102060002551094800F0B2F801280CD1064800F0CB
:1020700069F90649087001200549087040F22551A8
:10208000014800F07BF810BD00440040160000201D
:102090001700002000B587B001210420FFF70EFBD8
:1020A00001214804FFF7FAFA03208DF81A001820DE
:1020B0008DF81B000420ADF8180006A91F48FEF794
:1020C000CFFD48208DF81B000820ADF8180006A9A8
:1020D0001A48FEF7C5FD4FF4165002900020ADF8E7
:1020E00014000C20ADF812000020ADF81000ADF87F
:1020F0000E00ADF80C0002A9114800F0B7F801225B
:1021000040F225510E4800F08BF84FF4A060FEF726
:10211000E5FF26208DF8040001208DF807008DF8DA
:10212000050002208DF8060001A8FEF79FFF01219F
:10213000034800F032F807B000BD0000000801407D
:102140000044004010B540F22551094800F03EF827
:1021500001280CD1064800F0F5F806490870012066
:102160000549087040F22551014800F007F810BDFC
:1021700000480040180000201900002010B500227F
:10218000002340F66A14A14200D100BF0A120124C4
:102190009440A3B2DC43048010BD21B1828942F493
:1021A0000052828104E082894DF6FF731A408281D9
:1021B000704702460020B1F5007F00D100BF1388B0
:1021C0000B400BB1012000E00020704770B50246C3
:1021D000002400230025002040F66A16B14200D1F9
:1021E00000BFC1F3421501F01F03012606FA03F3F5
:1021F000012D02D19689334006E0022D02D1168AC4
:10220000334001E0968A33400C12012606FA04F4AA
:102210001688344013B10CB1012000E0002070BDDD
:10222000F0B50346002400260025002040F66A177A
:10223000B94200D100BF1846C1F3421401F01F0695
:10224000012707FA06F5012C01D10C3004E0022C1D
:1022500001D1103000E014301AB107682F43076035
:1022600002E00768AF430760F0BD00002DE9F047CA
:1022700086B005460E460024A24600BFA1460027B0
:10228000B08900B100BF2F462C8A4CF6FF70044085
:10229000F08804432C82AC894EF6F3100440B088D9
:1022A00031890843718908430443AC81AC8A4FF6F5
:1022B000FF400440B0890443AC8201A8FFF70EFA46
:1022C0001F48874202D1DDF810A001E0DDF80CA024
:1022D000A88900F4004040B10AEBCA0000EB0A10E4
:1022E00031684900B0FBF1F807E00AEBCA0000EBE7
:1022F0000A1031688900B0FBF1F86420B8FBF0F0F7
:1023000004012009642101FB1089A88900F4004020
:1023100040B1322000EBC900B0FBF1F000F0070043
:10232000044308E0322000EB09106421B0FBF1F017
:1023300000F00F0004432C8106B0BDE8F0870000D8
:102340000038014001468888C0F308007047C1F397
:1023500008028280704700BFFEE7000000200EE008
:10236000002100EB4002074B995400EB40021A4455
:10237000517000EB40021A449170411CC8B2082809
:10238000EEDB7047A404002030B50546082D00DDC3
:102390000825002407E000231A461946204600F0CD
:1023A000A5F9601CC4B2AC42F5DB30BD70B50021AC
:1023B000002007E000250B46491C1F4C24F8135051
:1023C000431CD8B23C28F5DB002025E000EB40049C
:1023D0001A4D2C5D240400EB4005184E35446D78F1
:1023E00044EA052400EB40053544AD7844EA050392
:1023F00000220DE003F400040CB13D2600E01D2690
:102400000C46491C0C4D25F814605B00541CE2B2CC
:10241000182AEFDB431CD8B20828D7DB002007E0DE
:1024200000250B46491C044C24F81350431CD8B219
:102430000A28F5DB70BD0000BC040020A4040020C5
:10244000F0B505460E461746002407E03B463246E7
:102450002946204600F04AF9601CC4B2082CF5DB7E
:10246000F0BD000010B50C4B1B780C4C24782343B6
:102470000B4C2478234323B9502303700B70137043
:1024800008E0054B1B780370044B1B780B70044B62
:102490001B78137010BD0000600000206100002058
:1024A0006200002001480068704700005C000020C6
:1024B00000B593B001210520FFF700F9012108467E
:1024C000FFF7ECF801210846FFF7D8F812A8FEF74D
:1024D00068FC0120ADF8480018208DF84B0003205F
:1024E0008DF84A0012A93248FEF7BAFB0FA8FFF791
:1024F000DFFC5920ADF840000020ADF83C00ADF8FD
:102500004200ADF83E000FA94FF08040FFF77EFC7F
:102510000BA8FFF765FC6020ADF82C000120ADF89A
:102520002E000020ADF83200ADF83400ADF83800D0
:102530000BA94FF08040FFF71DFB0821C806FFF7ED
:1025400065FB4FF403711B48FDF705FE1A48FEF7C3
:10255000E9F91A48009017480190102002904FF4B2
:102560008370039000200490802005904000069026
:10257000800007900020089009900A9069460E4854
:10258000FEF78CFA012251024805FFF7BDFA00213F
:102590004FF08040FFF7ACFA00214FF08040FFF78A
:1025A00029FC0020064908700649087013B000BDD8
:1025B00000080140BC0400205800024034000040E4
:1025C000580000205900002010B500F0A1FCFFF7D2
:1025D0006FFFFFF7C3FE00F0CFF8FF20044908703B
:1025E000002004490870FFF75DFF0349086010BD33
:1025F00065000020640000206800002010B5002065
:1026000000F02EFAFF2008490870002007490870E2
:10261000074908700749087007490870FFF79EFED0
:1026200000F0AAF810BD0000650000206400002042
:1026300062000020610000206000002010B5012031
:102640000249087000F0F0F910BD000059000020A8
:1026500010B5002003490870FFF724FF0249086005
:1026600010BD000059000020680000200146044809
:10267000007848436422B0FBF2F0C0B2704700001B
:102680006300002070B504460D46002000F0E8F914
:10269000642D00D964250D48057000200C49087090
:1026A000032C00DD00240B48047000200A49087048
:1026B00001200A490870002009490880094908805A
:1026C000FFF7F0FE0849086070BD000063000020BD
:1026D00064000020650000206C0000206D000020D8
:1026E0006E000020700000206800002030B508282F
:1026F00000DB30BD00EB4004054D2A5500EB4004E3
:102700002C44617000EB40042C44A37000BFF0E740
:10271000A404002070B506460C461546002000F0C3
:102720009FF9104806701048047010480570FF208B
:102730000F49087046EA0400284338B900200D49C3
:102740000870FFF70BFE00F017F870BD0120094973
:1027500008702A4621463046FFF772FE00F00CF85A
:1027600000BFF2E76000002061000020620000204E
:10277000650000206400002010B51D48007800B1FD
:1027800010BD1C48007860B14CF2503400BF4FF4CB
:102790000030FEF76DF910B9601E041EF7D100F08D
:1027A00043F9FFF703FE00211348FEF7AFF84FF49B
:1027B00083711148FEF790F94FF47020FEF798F8F6
:1027C00000214FF08040FFF715FB00214FF08040C3
:1027D000FFF719FB01210848FEF798F80121880747
:1027E000FFF786F901200349087000BFC8E7000021
:1027F0005900002058000020580002403EB5054610
:10280000FF2D03D940F2FF10401B85B264206843BE
:10281000FF21B0FBF1F0C4B2164800786043642198
:10282000B0FBF1F0C4B26A4601A902A8FFF71AFE94
:102830009DF8080060436421B0FBF1F0C0B2029043
:102840009DF804006043B0FBF1F0C0B201909DF828
:1028500000006043B0FBF1F0C0B200909DF8002092
:102860009DF804109DF80800FFF7EAFDFFF784FFCC
:102870003EBD000063000020FEB50446C4B16A46B8
:1028800001A902A8FFF7EEFD9DF80000FFF7EEFE9C
:1028900005469DF80400FFF7E9FE06469DF808008E
:1028A000FFF7E4FE07462A463146FFF7C9FD01E07F
:1028B000FFF754FDFFF760FFFEBDFEB506466A4612
:1028C00001A902A8FFF7CEFD9DF80800FFF7CEFE94
:1028D00002909DF80400FFF7C9FE01909DF80000EA
:1028E000FFF7C4FE0090FFF739FD002411E0351911
:1028F000E91705EB5171C910A5EBC101C8B29DF8EC
:1029000000309DF804209DF80810FFF7EFFE601CD2
:10291000C4B2022CEBDBFFF72FFFFEBD3EB5054630
:10292000002424E005EB4411C8B26B4601AA02A9B9
:1029300000F02AFB9DF808108808FFF797FE029028
:102940009DF804108808FFF791FE01909DF8001093
:102950008808FFF78BFE00909DF800309DF804205A
:102960009DF808102046FFF7C1FE601CC4B2082C79
:10297000D8DBFFF701FF3EBD10B51848007810B94D
:102980001748007800B110BD1648007818B91648ED
:102990000078FF2803D0012010490870F3E70120D8
:1029A0000E4908700E490870104908700A20104935
:1029B000087000200F4908700F4908700F4908700F
:1029C0000F4908800F490870FFF76CFD0E49086039
:1029D0000EA0FFF7FFFA00BFD5E70000730000204C
:1029E00072000020640000206500002074000020B8
:1029F0007C0000207D0000207E0000207F00002061
:102A00008000002082000020780000205B575332B5
:102A10003831325D20506F7765724F6E207374616C
:102A200072740D0A0000000010B500210A48FDF77D
:102A30006DFF00214FF08040FFF75AF800214FF062
:102A40008040FFF7D7F94FF47020FDF751FF0020C9
:102A50000249087010BD00005800024058000020D4
:102A600010B504460B48007800B910BD0020094994
:102A700008700949087054B10848007838B9084806
:102A80000078FF2803D1FFF769FCFFF775FE00BF50
:102A9000EBE70000720000207400002064000020BA
:102AA0006500002010B53F48007800B110BDFFF769
:102AB000F9FC04463C48007800B1F7E73B48007851
:102AC000FF2866D00020FFF7CBFF3848007830B1F0
:102AD00001281CD002282DD0032857D143E03448C8
:102AE0000068201A502800D2E0E7314804603148DD
:102AF0000078401C2F49087008460078082801DB40
:102B0000002008702B480078FFF7D7FE3FE02848E8
:102B10000068201A782800D2C8E7254804602648B3
:102B2000007880F001002449087008460078FFF71B
:102B3000A3FE2CE01E480068201A192800D2B5E731
:102B40001B4804601D480088401C1C49088008463A
:102B50000088B0F5007F01D3002008801748008866
:102B6000FFF74CFE13E012480068201A282800D214
:102B70009CE70F48046012480078801CC0B21049DE
:102B8000088008460088FFF7C9FE00E000BF00BFCC
:102B90008CE70C48007810B1204600F015F800BF13
:102BA00084E7000059000020640000206500002038
:102BB000680000206C0000206D0000206E000020E6
:102BC00070000020720000202DE9F04104463227F9
:102BD000C048007808B9BDE8F081BF4800780928EE
:102BE00079D2DFE800F078053879A8DCFDFCFB003D
:102BF000BA480068201A142800D2ECE7B7480460ED
:102C0000FFF7ACFB142300220A21B5480078FFF738
:102C10006DFDFFF7B1FDB2480078401CB049087067
:102C200008460078082815DB00200870AD480078B9
:102C3000002804DDAB480078401EAA490870A94866
:102C4000007838B90020A8490870A8490870022007
:102C5000A14908703AE1A4480078C0F10800C5B263
:102C600055B90020A24908809D49087005209A495D
:102C700008709A48046029E12846FFF785FBFFF7B2
:102C80007BFD9A480078401CC0B2A84211DB322379
:102C90000022192195480078FFF728FDFFF76CFD09
:102CA00000209349088003208B4908708B480460FA
:102CB00010E019231A4619468C480078FFF716FDD4
:102CC000FFF75AFD042084490870002088490880D5
:102CD00082480460FAE0F3E080480068201A0A287D
:102CE00000D278E77D48046081480088322812DAF3
:102CF0007F4802780088322303EB5000C1B27B4842
:102D00000078FFF7F3FCFFF737FD79480088401D96
:102D1000774908800EE074480078401C72490870BA
:102D200000207249087004206B4908704FF6FF704C
:102D30006F490880CAE06E4800884FF6FF718842EC
:102D40001CD166480068201AD22800D243E7002030
:102D50006749088064480078082809DB002008805B
:102D60005F49087005205C4908705C48046015E004
:102D7000022059490870594804600FE0574800681C
:102D8000201A0A2800D226E758480078401C5749E4
:102D900008700220504908705048046096E050487E
:102DA000007828B14D480068201A282800D212E780
:102DB0004A48046001204A4908704D48008832287A
:102DC00015DA4B4802780088322303EB5000C1B279
:102DD0000020FFF78BFCFFF7CFFC02E048E020E08B
:102DE0000CE043480088401D4149088005E0002070
:102DF0003B49087006203849087067E0374800688A
:102E0000201AB0F5FA7F00D2E5E6032039490870B0
:102E100000203749088007202F4908702F48046098
:102E200054E03348008898B9002607E032231A4658
:102E300019463046FFF75AFC701CC6B2082EF5DB67
:102E4000FFF79AFC01202A49088024480460C2E662
:102E500022480068201AC82800D2BCE6FFF77EFA94
:102E6000FFF78AFC08201C4908701C4804602DE00C
:102E70001A480068201AC82800D2ACE61D4800781D
:102E8000002804DD1B480078401E1A4908701948C4
:102E9000007860B9FFF762FAFFF76EFC00200D4979
:102EA00008700D49087014A0FFF794F807E000209F
:102EB0000F4908800720084908700848046005E0A9
:102EC0000020044908700449087000BF00BF00BF1B
:102ED00081E60000720000207400002078000020CD
:102EE0007D0000207C0000207E0000207F0000206C
:102EF00080000020820000205B5753323831325D61
:102F000020506F7765724F6E20646F6E650D0A00FA
:102F10001FB501210420FEF7C1FB01A8FEF7C8FF81
:102F20004720ADF8040040F2E730ADF8080000207B
:102F3000ADF80A00ADF8060001A91148FEF766FFDA
:102F400001210F48FEF7CEFD012211460C48FEF785
:102F500002FE1E208DF8000003208DF801008DF880
:102F6000020001208DF803006846FEF77FF800207C
:102F70000449086001210248FEF7BAFD1FBD0000A8
:102F8000000800405C00002010B555280AD200EB74
:102F900040040C7000EB4004C4F1FF0414700024E2
:102FA0001C701CE0AA280DD2A0F15504E0B200EB81
:102FB0004004C4F1FF040C700024147000EB4004C2
:102FC0001C700CE0A0F1AA04E0B200240C7000EB2D
:102FD0004004147000EB4004C4F1FF041C7010BDE9
:102FE00037B514460846064B6A46214600F0DCF821
:102FF00004466946002000F06EFC20463EBD0000FD
:10300000D738000802E008C8121F08C1002AFAD108
:1030100070477047002001E001C1121F002AFBD158
:10302000704700002DE9FF5F82B00021DDE9043028
:10303000020DDDF840B0034318D044F61050A2F260
:10304000FF3242431514119801281FD0A5EB0B0045
:10305000401C5FEA000A4FF000064E4FDFF838913F
:10306000B046504615D5CAF1000413E0119801246A
:103070004AA3012801D16FEA0B010298119AC0E915
:103080000031C0E9024206B0BDE8F09FCBF100007C
:10309000DFE704460021404A491842EB0450CDE9DD
:1030A000001012E0E00707D032463B464046494652
:1030B000FDF7CBF98046894632463B461046194615
:1030C000FDF7C3F906460F466410002CEAD1DDE98E
:1030D0000401DDE90023BAF1000F06DAFDF7B5F9C6
:1030E00042464B46FDF7B1F905E0FDF720FA4246AE
:1030F0004B46FDF71CFA04460E460022284BFDF70E
:10310000A7FA03D84FF0FF30014607E00022254B15
:1031100020463146FDF7F2F8FDF7BEFB102409E02A
:10312000002C0ADB0A220023FDF7C0FA039B303291
:103130001A55641E50EA0102F2D1641C039AC4F1CC
:1031400011031444119A012A03D0012208430DD11E
:103150000AE0084304D000204FF0110B119072E7F1
:10316000A3EB0B056D1E0DE05B4504DD4FF0000287
:1031700005F1010504E003DA4FF00002A5F10105B5
:10318000002AECD002981199C0E90231C0E900454B
:1031900079E70000000014400000F03F300000001C
:1031A0000000F0430000E03F2DE9FF4F95B09B4643
:1031B0008946064600250FE2252877D100242746B8
:1031C000F84A0121059400E0044316F8013F203B32
:1031D00001FA03F01042F7D130782A2811D06FF0AD
:1031E0002F033078A0F13002092A16D8059A44F04E
:1031F000020402EB820203EB42021044761C0590AB
:10320000EFE759F8042B0592002A03DA504244F400
:103210000054059044F00204761C30782E2816D114
:1032200016F8010F44F004042A280DD06FF02F0285
:103230003078A0F13003092B09D807EB870302EBA4
:103240004303C718761CF3E759F8047B761C3078E3
:103250006C280FD006DC4C2817D068280DD06A28BF
:1032600014D104E0742810D07A280FD10DE044F472
:1032700000140AE044F4801401E044F4401472782D
:10328000824202D104F58014761C761C30786628C0
:103290000BD013DC582877D009DC002875D04528DE
:1032A000F6D04628F4D047281AD19DE118E06328CB
:1032B00035D0642879D0652812D195E1702873D073
:1032C00008DC6728F1D069286FD06E280DD06F28F0
:1032D00006D1B5E073282CD0752875D0782874D025
:1032E0005A46179990476D1C75E1C4F302500228A5
:1032F00009D003280DD0D9F8001004280DD00D6096
:1033000009F1040967E1D9F80010EA17C1E9005290
:10331000F6E7D9F800100D80F2E70D70F0E719F824
:10332000041B8DF8001000208DF80100EA460120F2
:1033300003E059F804AB4FF0FF3061074FF0000194
:1033400002D40DE008F101018846B9420FDA804548
:10335000F8DB1AF808100029F4D108E008F101019F
:1033600088468142FADB1AF808100029F6D1059840
:103370005B46A0EB080721463846179A00F094FAFE
:10338000284400EB080507E04DE029E10DE01AF8BC
:10339000010B5A4617999047B8F10108F7D25B46DE
:1033A00021463846179A13E142E00A220092C4F3FC
:1033B00002524FF0000A022A08D059F804CB032A1F
:1033C0004FEAEC710AD00DE029E02AE009F107018B
:1033D00021F00702F2E802C1914609E00FFA8CFCE5
:1033E0004FEAEC71042A03D14FFA8CFC4FEAEC71DE
:1033F000002907DA0A460021DCF1000C61EB02012A
:103400002D2202E0220504D52B228DF80420012272
:1034100003E0E20701D02022F7E7904659E00A21B5
:1034200002E010220DE010214FF0000A00910BE0A5
:1034300010224FF0000A44F004040827009203E031
:1034400008224FF0000A0092C4F30252022A05D06B
:1034500059F804CB0021032A08D009E009F107013B
:1034600021F00702F2E802C1914605E01FFA8CFC48
:10347000042A01D10CF0FF0C4FF00008220728D5D8
:10348000702806D0009B83F0100353EA0A0305D08E
:103490000EE040228DF80420012208E05CEA0102DF
:1034A00006D030228DF804208DF8050002229046C7
:1034B000009B83F0080353EA0A030AD15CEA010285
:1034C00001D1620705D530228DF804204FF00108A4
:1034D0007F1E582804D034A003900EA802900DE05F
:1034E00036A0F9E753466046009AFDF7DFF88446B8
:1034F0000398825C0298401E029002705CEA010010
:10350000F0D1029806A9081A00F1200A600702D536
:1035100024F4803400E00127574502DDA7EB0A00C0
:1035200000E0002000EB0A01009005984144401A99
:103530000590E00306D45B462146179A059800F0F3
:10354000B3F90544002706E001A85A46C05D179963
:1035500090476D1C7F1C4745F6DBE0030CD55B46AE
:103560002146179A059800F09FF9054404E03020A1
:103570005A46179990476D1C0099481E00900029E3
:10358000F5DC08E0029802995A460078491C02913D
:10359000179990476D1CBAF10001AAF1010AF1DCFC
:1035A00065E1000009280100303132333435363707
:1035B000383961626364656600000000303132337F
:1035C000343536373839414243444546000000001F
:1035D00000F058F90544761C307800287FF4ECADF3
:1035E00019B02846BDE8F08F620700D4062709F11C
:1035F000070222F0070CFCE80223E14603F0004832
:103600005FEA080C02D00FF2702C0DE05FEA045C58
:1036100002D50FF2682C07E05FEAC47C02D00FF2FB
:10362000602C01E0AFF2700C4FF0FF3823F0004344
:10363000CDF850C065280CD006DC452809D04628B6
:103640001DD047283DD13DE0662818D067287ED19F
:1036500038E00021112F01DB112000E0781CCDE9BA
:10366000000106A90EA8FFF7DDFCDDE90F010E9AA7
:1036700003910021009207F1010A04914DE04FF0FF
:1036800000400097CDE9011006A90EA8FFF7CAFC7B
:10369000DDE90F0203920E9B11990022DDF80CA0C8
:1036A0000093049211B9791C00EB010AB7EB0A00F0
:1036B00004D4C0F1FF3007F1010A0490AAEB07001F
:1036C000019044E0012F00DA01270021112F01DDD4
:1036D000112000E03846CDE9000106A90EA8FFF749
:1036E000A1FCDDE90F010E9A0391002104910092E3
:1036F000BA4621070CD40399514500DA8A46BAF13B
:10370000010F05DD009AAAF10101515C302908D0B2
:10371000B84202DA10F1040F06DA0121CDE90110F6
:1037200015E0AAF10101E9E7002805DC049901444C
:103730000491AAEB000102E0411C514500DD8A46DC
:103740000499401A401C01904FF00040029020075D
:1037500004D40198504501DBCDF8048000208DF899
:103760004F0002980DF14F07B0F1004F25D02B20EC
:103770000E9002984FF0020800280CDA40420290A6
:103780002D200E9007E00A210298FCF779FF3031D6
:10379000029007F8011DB8F10001A8F10108F2DC60
:1037A00002980028EFD1791E0E980870307800F04A
:1037B000200040F0450007F8020D12A8C01B00F1E0
:1037C00007081498007800B1012000EB0A01019865
:1037D00001EBE07105984144401A401E0590E0035A
:1037E00006D45B462146179A059800F05DF805441B
:1037F0001498007818B15A46179990476D1CE00349
:1038000024D55B462146179A059800F04DF80544EB
:103810001CE00498002807DBDDE90301884203DD92
:103820000098405C179901E0179930205A4690475C
:10383000049805F10105401C04900198401E019078
:1038400004D12E205A46179990476D1CBAF10001F9
:10385000AAF1010ADDDC05E017F8010B5A461799B9
:1038600090476D1CB8F10001A8F10108F4DC5B463B
:103870002146179A0598ABE62D0000002B000000AA
:10388000200000002DE9F041044600251E461746A1
:10389000880404D405E039462020B0476D1C641E1E
:1038A000F9D52846BDE8F0812DE9F0410446002510
:1038B0001E469046C80301D5302700E02027880423
:1038C00004D505E041463846B0476D1C641EF9D565
:1038D0002846BDE8F0810A68531C0B6010707047E1
:1038E000F8B501F003FB3C4800684023802200212A
:1038F00000900846FDF748FD0520FDF7FCF8374825
:1039000040238022002100900846FDF73DFD012064
:10391000FDF7F1F830480068402380220021009034
:103920000846FDF731FD0120FDF7E5F82C48FDF7CD
:10393000A3FF2C48FDF7DCFF002542E0002411E046
:1039400004F15A00FCF762FE0646FDF777FFC4F16A
:103950005A00FCF75BFE0646FDF7ACFF0520FDF7BD
:10396000BEF8641C2D2CEBDB002411E0C4F18700B1
:10397000FCF74CFE0646FDF761FF04F12D00FCF755
:1039800045FE0646FDF796FF0520FDF7A8F8641CE6
:103990005A2CEBDB002411E004F12D00FCF736FE7D
:1039A0000646FDF74BFFC4F18700FCF72FFE0646E5
:1039B000FDF780FF0520FDF792F8641C2D2CEBDB52
:1039C0006D1C032DBADB08480078084908703520C3
:1039D00005490870F8BD00001C0000209C9A0008F2
:1039E00000000743000034429500002096000020AC
:1039F00070B500208F4908602BE08E49096801F1FD
:103A00005A00FCF703FE0446FDF718FF89490968D0
:103A1000C1F15A00FCF7FAFD0446FDF74BFF85495A
:103A20000968C1F15A00FCF7F1FD0446FDF724FFD7
:103A30008049096801F15A00FCF7E8FD0446FDF7EA
:103A400057FF0F20FDF74BF87A480068401C794972
:103A50000860784800685A28CFDB4FF4FA70FDF709
:103A60003EF800207349086027E072490968C1F1F7
:103A7000B400FCF7CBFD0446FDF7E0FE6D49086895
:103A8000FCF7C4FD0446FDF715FF6A490868FCF71A
:103A9000BDFD0446FDF7F0FE66490968C1F1B400BA
:103AA000FCF7B4FD0446FDF723FF0F20FDF717F8E0
:103AB00060480068401C5F4908605E4800685A28FA
:103AC000D3DB4FF4FA70FDF70AF80020594908607B
:103AD00031E058490C6804EBD4714910C1F15A0027
:103AE000FCF794FD0546FDF7A9FE52490C6804EB6E
:103AF000D471491001F15A00FCF788FD0546FDF725
:103B0000D9FE4C490968C1F15A00FCF77FFD044613
:103B1000FDF7B2FE4749096801F15A00FCF776FD4E
:103B20000446FDF7E5FE0F20FCF7D9FF4148006889
:103B3000401C404908603F4800685028C9DB4FF4EA
:103B4000FA70FCF7CCFF00203A4908602BE03949B5
:103B5000096801F13200FCF759FD0446FDF76EFEDD
:103B600034490968C1F18200FCF750FD0446FDF7B5
:103B7000A1FE3049096801F10A00FCF747FD04463F
:103B8000FDF77AFE2B490968C1F1AA00FCF73EFD5A
:103B90000446FDF7ADFE0F20FCF7A1FF25480068A5
:103BA000401C24490860234800687828CFDB4FF484
:103BB000FA70FCF794FF00201E49086031E01D49AF
:103BC0000968C1F1AA00FCF721FD0446FDF736FEA5
:103BD0001849096801F10A00FCF718FD0446FDF7D1
:103BE00069FE14490C6804EBD4714910C1F18200DC
:103BF000FCF70CFD0546FDF73FFE0E490C6804EB93
:103C0000D471491001F13200FCF700FD0546FDF7C3
:103C10006FFE0F20FCF763FF06480068401C054953
:103C20000860044800685028C9DB4FF4FA70FCF7BC
:103C300056FF70BD4800002008B5FDF7F9F9FDF703
:103C400027FBFEF76FF9FEF725FAFDF7F3FDFEF708
:103C5000BBFCFDF709F900F0A7FCFDF749FAC948DC
:103C600040238022002100900846FDF78DFBC6A06E
:103C7000FEF7B0F9FEF780FE83E1FEF729F948B1BF
:103C8000FEF720F9C549087008460178C4A0FEF780
:103C9000A1F90BE0FEF7D4F940B1FEF7CBF9BF492B
:103CA000087008460178C4A0FEF794F9FDF742F9C0
:103CB000054635B1B9480078302802D12846FDF7CD
:103CC0007FF8FCF72FFA054600EBD5704010A5EB06
:103CD0004004B248007854286FD026DC42286DD0CA
:103CE00012DC352872D008DC312869D0322868D03F
:103CF000332867D0342840D121E1362874D03728C2
:103D000073D04128F7D1C3E049286FD006DC45289D
:103D10006DD047286CD04828EDD1E5E04B2868D01D
:103D2000512867D05228E6D1A1E06F2871D012DC6B
:103D300066281BD008DC55286CD057286BD0622829
:103D40001CD06428D7D132E06A285DD06C281AD004
:103D50006E28D0D194E070380B280ED2DFE800F046
:103D6000663B184B0D0D0D1D0D5C220098A0FEF753
:103D700031F9FEF763FC00F0D9F9FEE0FEF75EFCD6
:103D800000F02CF9F9E0FEF759FC00F015FBF4E027
:103D9000FEF754FC00F03CFBEFE0FEF74FFC00F0B8
:103DA00053FCEAE0FEF74AFC00F07AFCE5E0FEF79F
:103DB00045FC44B100F08EF907E0ABE048E005E0D7
:103DC0002FE03CE0B1E000F039F9D6E0FEF740FC2E
:103DD00000F0EAFBD1E080480078302803D0FEF7FD
:103DE0002DFC00F0CBFBC8E0B3E0BCE087E070E066
:103DF00059E037E03EE078480078732803D0FEF7BA
:103E00001DFC00F0EDFBB8E0FEF718FC00F074FCC0
:103E1000B3E022E052E030E0FEF710FC00F09AFA46
:103E2000ABE0FEF70BFC00F0B9F9A6E06A480078B9
:103E3000702803D0FEF702FC00F016FB9DE06648F8
:103E40000078322803D0FEF7F9FB00F051FB94E034
:103E5000FEF7F4FB00F0F2F88FE0FEF7EFFB00F066
:103E6000D5F98AE0FEF7EAFB00F0E8F885E001F01A
:103E7000CBF982E001F094FA7FE0FFF731FD7CE0BE
:103E8000FEF7E6FBFEF7BAFB30204449087074E009
:103E9000FEF7DEFB002211462820FEF73BFC302017
:103EA0003E49087069E0FEF7D3FB00222821104646
:103EB000FEF730FC3020394908705EE0FEF7C8FBA1
:103EC000282200210846FEF725FC302033490870DF
:103ED00053E0FEF7BDFB00221E212820FEF71AFC4E
:103EE00030202E49087048E0FEF7B2FB1E22114632
:103EF0001046FEF70FFC3020284908703DE0FEF721
:103F0000A7FB1E2200211046FEF704FC30202349A7
:103F1000087032E0FEF79CFB1E2211460020FEF7DF
:103F2000F9FB30201D49087027E0FEF791FB322194
:103F30000020FEF7A7FB3020184908701DE0FEF7AF
:103F400087FB32210120FEF79DFB302013490870CA
:103F500013E0FEF77DFB32210220FEF793FB3020B9
:103F60000E49087009E0FEF773FB32210320FEF7CB
:103F700089FB30200949087000BF00BFFEF792FDA1
:103F800000BF7AE6EC61000868656C6C6F206D61BB
:103F90006E20626F20646F670D0A0000950000209C
:103FA00075617274315F636F6D6D616E643A633A0F
:103FB00025630D0A0000000075617274325F636F43
:103FC0006D6D616E643A633A25630D0A000000006E
:103FD00066726F6E740D0A009600002010B51348CB
:103FE0000078C8B11248007820B101F051F80020E3
:103FF0000F49087000F09EFBFDF704F8FDF796F9F5
:10400000FDF75AFA0B4800780B490870074800780A
:10401000401E0649087008E0352006490870052052
:104020000249087001200249087010BD9C00002060
:104030009B000020950000209600002008B51D4838
:1040400040238022002100900846FDF79DF91A4880
:10405000FDF7F4FB19484023802200210090084618
:10406000FDF792F91648FDF725FC1648FDF7E6FB2B
:104070001448FDF71FFC14484023802200210090C3
:104080000846FDF781F90B4840238022002100906B
:104090000846FDF779F900F043FD00F041FD0520E9
:1040A000FCF729FD094800780949087030200749C4
:1040B000087008BDEC75000800000743EC85000897
:1040C000000034420000B442EC7D0008950000205E
:1040D0009600002010B511480078A8B1104800786B
:1040E00020B100F0D5FF00200D49087000F07CFBE6
:1040F000FCF788FF0B4800780B49087007480078E8
:10410000401E0649087008E0352006490870052061
:104110000249087001200249087010BD9C0000206F
:104120009B000020950000209600002010B5144848
:104130000078D0B11348007820B100F0A9FF00202A
:104140001049087000F0E6FBFCF75CFF0E480078B1
:104150000E4908700A480078401E09490870084650
:1041600001780BA0FDF736FF08E0352006490870FE
:1041700005200349087001200249087010BD0000A5
:104180009C0000209B00002095000020960000204D
:10419000737465703A25640D0A00000008B516486E
:1041A000007808B31548402380220021009008467B
:1041B000FDF7EAF81248007800F0E0FD11484023CE
:1041C0008022002100900846FDF7DEF800F0FCFB9D
:1041D000FCF718FF0C480078094908700648007879
:1041E000401E0549087005E0352007490870052084
:1041F0000149087008BD00009C000020EC5D00082B
:1042000096000020EC81000895000020F8B54C488D
:10421000007835280FD04A48007844280BD0494808
:1042200040238022002100900846FDF7ADF8444865
:10423000007800F0A3FD4448402380220021009034
:104240000846FDF7A1F8002418E0C4F15A00FCF775
:10425000DDF90546FDF7F2FA04F15A00FCF7D6F94C
:104260000546FDF709FBC4F15A00FCF7CFF90546F6
:10427000FDF73EFB0720FCF732FC641C142CE4DB4A
:10428000002411E004F16E00FCF7C0F90546FDF7CB
:10429000F3FAC4F14600FCF7B9F90546FDF728FB2F
:1042A0000720FCF71CFC641C282CEBDB00240AE034
:1042B00004F14600FCF7AAF90546FDF7BFFA042011
:1042C000FCF70DFC641C3C2CF2DB3220FCF707FCF5
:1042D000002622E000250CE005EB8501C1F1B400C9
:1042E000FCF794F90746FDF7A9FA2820FCF7F7FB3D
:1042F0006D1C0A2DF0DB00250CE005EB850101F1BA
:104300008200FCF783F90746FDF798FA2820FCF7AE
:10431000E6FB6D1C0A2DF0DB761C052EDADB0B4864
:10432000FDF78CFA4FF4FA70FCF7D9FBFCF76AFE44
:104330000748007802490870302005490870F8BD28
:1043400096000020EC5D0008EC89000800008C421B
:104350009500002008B514484023802200210090D9
:104360000846FDF711F81148007800F007FD1048E5
:1043700040238022002100900846FDF705F8FFF752
:1043800037FB094840238022002100900846FCF7B3
:10439000FBFFFCF737FE074800780449087030201F
:1043A0000449087008BD0000EC5D0008960000207C
:1043B000EC7D00089500002010B511480078A8B1E8
:1043C0001048007820B100F063FE00200D4908700D
:1043D00000F042FBFCF716FE0B4800780B49087012
:1043E00007480078401E0649087008E03520064955
:1043F000087005200249087001200249087010BDAC
:104400009C0000209B0000209500002096000020CA
:1044100010B511480078A8B11048007820B100F01C
:1044200037FE00200D49087000F048FBFCF7EAFD5C
:104430000B4800780B49087007480078401E064971
:10444000087008E035200649087005200249087008
:1044500001200249087010BD9C0000209B00002034
:10446000950000209600002038B51C4800783528BB
:104470000FD01A48007871280BD0194840238022A9
:10448000002100900846FCF77FFF1448007800F0F8
:1044900075FCFBF747FE044600EBD4704010A4EB1C
:1044A000400040B10F484023802200210090084680
:1044B000FCF76AFF07E00C484023802200210090AF
:1044C0000846FCF761FF00F0C9FB08480078034983
:1044D000087030200549087038BD000096000020A3
:1044E000EC5D0008EC710008EC79000895000020F4
:1044F00038B51D480078352812D01B48007871283F
:104500000ED01A4840238022002100900846FCF774
:104510003BFF1548007800F031FC0120FCF7EBFA76
:10452000FBF700FE044600EBD4704010A4EB400003
:1045300040B10F4840238022002100900846FCF73C
:1045400023FF07E00B48402380220021009008460B
:10455000FCF71AFF00F0CAFB074800780249087010
:1045600030200549087038BD96000020EC5D000839
:10457000EC710008EC7900089500002010B500F0FF
:1045800087FD0748007800F0F9FBFCF73BFD054884
:1045900000780349087030200249087010BD0000FF
:1045A000960000209500002008B50A48402380228C
:1045B000002100900846FCF7E7FE00F097FCFCF7AE
:1045C00021FD05480078054908703020024908702F
:1045D00008BD00009CA60008950000209600002061
:1045E00008B5144840238022002100900846FCF7BB
:1045F000CBFE1148007800F0C1FB10484023802218
:10460000002100900846FCF7BFFE00F083FC0C4838
:1046100040238022002100900846FCF7B5FEFCF7FD
:10462000F1FC0848007804490870302005490870FA
:1046300008BD0000EC5D000896000020EC61000859
:10464000EC8900089500002010B511480078A8B149
:104650001048007820B100F01BFD00200D490870C3
:1046600000F05EFAFCF7CEFC0B4800780B490870AE
:1046700007480078401E0649087008E035200649C2
:10468000087005200249087001200249087010BD19
:104690009C0000209B000020950000209600002038
:1046A00010B511480078A8B11048007820B100F08A
:1046B000EFFC00200D49087000F076FAFCF7A2FC30
:1046C0000B4800780B49087007480078401E0649DF
:1046D000087008E035200649087005200249087076
:1046E00001200249087010BD9C0000209B000020A2
:1046F000950000209600002008B50B48402380223A
:10470000002100900846FCF73FFE00F0EFFB00F0B0
:1047100093FCFCF777FC05480078054908703020C9
:104720000249087008BD0000EC5D000895000020FB
:104730009600002010B52848FDF780F82748FDF7BF
:10474000D7F827480068FCF7CAF92448FDF794F821
:104750002148FDF7AFF822480068FCF7C0F921486E
:10476000FDF76CF81F48FDF7C3F81D480068FCF71B
:10477000B6F91C48FDF780F81A48FDF79BF8184871
:104780000068FCF7ACF91448FDF776F81348FDF71C
:1047900091F813480068FCF7A2F91048FDF74EF8AD
:1047A0000D48FDF7A5F80E480068FCF798F90D488C
:1047B000FDF762F80B48FDF77DF809480068FCF743
:1047C0008EF90848FDF73AF80648FDF791F80448D5
:1047D0000068FCF784F910BD000034420000074374
:1047E000500000200000B44210B54648FDF726F8FE
:1047F0004448FDF741F844480068FCF770F9414827
:10480000FDF758F83F48FDF773F83F480068FCF79C
:1048100066F93E48FDF712F83C48FDF72DF83A4896
:104820000068FCF75CF93948FDF744F83748FDF7B4
:104830005FF835480068FCF752F93248FDF71CF87C
:104840003048FCF7FBFF3248FDF734F83048FDF7FD
:104850004FF89620FCF743F92C48FCF7EFFF2B4864
:10486000FDF70AF82948FDF725F82848FDF740F834
:104870009620FCF734F92648FDF71CF82448FDF78C
:1048800037F821480068FCF72AF92148FCF7D6FFE1
:104890001F48FCF7F1FF1C480068FCF720F91B4893
:1048A000FDF708F81948FDF723F817480068FCF7EA
:1048B00016F91648FCF7C2FF1448FCF7DDFF124852
:1048C0000068FCF70CF91248FCF7D6FF1048FCF71B
:1048D000B5FF0C48FCF7EEFF0A48FDF709F89620F3
:1048E000FCF7FDF80948FCF7A9FF0848FCF7C4FFEE
:1048F0000648FCF7DFFF0548FCF7FAFF9620FCF7B7
:10490000EEF810BD00000743500000200000B44244
:104910000000344210B52848FCF790FF2748FCF708
:10492000E7FF27480068FCF7DAF82448FCF7A4FF03
:104930002148FCF7BFFF22480068FCF7D0F8214867
:10494000FCF77CFF1F48FCF7D3FF1D480068FCF70D
:10495000C6F81C48FCF790FF1A48FCF7ABFF184854
:104960000068FCF7BCF81448FCF786FF1348FCF716
:10497000A1FF13480068FCF7B2F81048FCF75EFF8F
:104980000D48FCF7B5FF0E480068FCF7A8F80D4885
:10499000FCF772FF0B48FCF78DFF09480068FCF735
:1049A0009EF80848FCF74AFF0648FCF7A1FF0448B8
:1049B0000068FCF794F810BD000007430000344283
:1049C000500000200000B44210B5002021490860CA
:1049D00019E020490968C1F15A00FBF717FE0446A7
:1049E000FCF72CFF1B49096801F15A00FBF70EFE8A
:1049F0000446FCF75FFF0A20FCF771F815480068D1
:104A0000401C14490860134800681428E1DB0020AA
:104A10001049086019E00F49096801F15A00FBF7D5
:104A2000F5FD0446FCF728FF0A490968C1F15A0060
:104A3000FBF7ECFD0446FCF75BFF0A20FCF74FF8A0
:104A400004480068401C0349086002480068412887
:104A5000E1DB10BD4800002010B51448FCF70CFF46
:104A60001248FCF727FF12480068FCF738F8114895
:104A7000FCF7E4FE0F48FCF73BFF0D480068FCF72D
:104A80002EF80D48FCF7F8FE0B48FCF713FF08481A
:104A90000068FCF724F80848FCF7D0FE0648FCF74D
:104AA00027FF03480068FCF71AF810BD0000074311
:104AB00050000020000034420000B44210B51448F9
:104AC000FCF7BCFE1248FCF713FF12480068FCF725
:104AD00006F81148FCF7D0FE0F48FCF7EBFE0D4836
:104AE0000068FBF7FCFF0D48FCF7A8FE0B48FCF73D
:104AF000FFFE08480068FBF7F2FF0848FCF7BCFE21
:104B00000648FCF7D7FE03480068FBF7E8FF10BD36
:104B10000000344250000020000007430000B4426F
:104B200010B51E48FCF7A8FE1C48FCF787FE1C4881
:104B3000FCF7C0FE1A48FCF7DBFE9620FBF7CFFF20
:104B40001848FCF77BFE1748FCF796FE1548FCF763
:104B5000B1FE1448FCF7CCFE9620FBF7C0FF1048CE
:104B6000FCF78AFE0E48FCF769FE0C48FCF7A2FE33
:104B70000A48FCF7BDFE9620FBF7B1FF0948FCF799
:104B80005DFE0848FCF778FE0648FCF793FE0548F2
:104B9000FCF7AEFE9620FBF7A2FF10BD0000074316
:104BA000000034420000B44210B52848FCF746FE2D
:104BB0002648FCF761FE26480068FBF790FF234873
:104BC000FCF778FE2148FCF793FE21480068FBF7CC
:104BD00086FF2048FCF732FE1E48FCF74DFE1C48BD
:104BE0000068FBF77CFF1B48FCF764FE1948FCF7E4
:104BF0007FFE17480068FBF772FF1748FCF75AFE64
:104C00001548FCF775FE12480068FBF768FF12486C
:104C1000FCF714FE1048FCF72FFE0D480068FBF768
:104C20005EFF0C48FCF746FE0A48FCF761FE0848A8
:104C30000068FBF754FF0748FCF700FE0548FCF747
:104C40001BFE03480068FBF74AFF10BD0000074346
:104C5000500000200000B4420000344210B5002093
:104C60002149086019E02049096801F15A00FBF761
:104C7000CDFC0446FCF7E2FD1B490968C1F15A006E
:104C8000FBF7C4FC0446FCF715FE0A20FBF727FFE0
:104C900015480068401C14490860134800684B28F8
:104CA000E1DB00201049086019E00F49096801F1B3
:104CB0005A00FBF7ABFC0446FCF71AFE0A490968E8
:104CC000C1F15A00FBF7A2FC0446FCF7D5FD0A200F
:104CD000FBF705FF04480068401C034908600248D0
:104CE00000684B28E1DB10BD4800002010B5002013
:104CF0002149086019E02049096801F15A00FBF7D1
:104D000085FC0446FCF7D6FD1B490968C1F15A0031
:104D1000FBF77CFC0446FCF791FD0A20FBF7DFFE65
:104D200015480068401C14490860134800684B2867
:104D3000E1DB00201049086019E00F49096801F122
:104D40005A00FBF763FC0446FCF796FD0A49096824
:104D5000C1F15A00FBF75AFC0446FCF7C9FD0A20D2
:104D6000FBF7BDFE04480068401C03490860024888
:104D700000684B28E1DB10BD4800002070B50446F8
:104D8000302C00D170BDFCF715FD54490870FCF7BC
:104D900021FD53490870FCF72DFD52490870FCF7BE
:104DA00039FD5149087086E04C4800785A280CDDDE
:104DB0004A480078401E4949087008460078FBF7C9
:104DC0002EFC0546FCF73AFD0FE0444800785A28CF
:104DD0000BDA42480078401C4049087008460078C9
:104DE000FBF71DFC0546FCF729FD3E4800785A28D4
:104DF0000CDD3C480078401E3A49087008460078AF
:104E0000FBF70DFC0546FCF755FD0FE03548007833
:104E10005A280BDA33480078401C3249087008469B
:104E20000078FBF7FCFB0546FCF744FD2C480078B6
:104E30005A280CDD2A480078401E29490870084687
:104E40000078FBF7ECFB0546FCF716FD0FE0244865
:104E500000785A280BDA22480078401C2049087054
:104E600008460078FBF7DBFB0546FCF705FD1E480E
:104E700000785A280CDD1C480078401E1A4908703A
:104E800008460078FBF7CBFB0546FCF731FD0FE049
:104E9000154800785A280BDA13480078401C12494C
:104EA000087008460078FBF7BAFB0546FCF720FDC2
:104EB0000A20FBF714FE094800785A287FF474AFE3
:104EC000084800785A28F9D1054800785A28F5D1C1
:104ED000054800785A28F1D100BF53E7540000205C
:104EE00055000020560000205700002010B508484B
:104EF000FCF7A4FC0648FCF7BFFC0548FCF7DAFC0D
:104F00000348FCF7F5FC4FF4FA70FBF7E8FD10BD21
:104F10000000B44210B500204349086019E042493E
:104F2000096801F15A00FBF771FB0446FCF7A4FC89
:104F30003D490968C1F15A00FBF768FB0446FCF7DC
:104F4000D7FC0520FBF7CBFD37480068401C3649ED
:104F50000860354800684128E1DB002032490860DC
:104F600019E031490968C1F15A00FBF74FFB0446CB
:104F7000FCF764FC2C49096801F15A00FBF746FB79
:104F80000446FCF797FC0520FBF7A9FD26480068BE
:104F9000401C25490860244800681428E1DB4FF4D0
:104FA0007A70FBF79CFD00201F49086010E01E4945
:104FB000096801F14600FBF729FB0446FCF73EFCBB
:104FC0000420FBF78CFD18480068401C1649086057
:104FD000154800683C28EADB4FF47A70FBF77FFD48
:104FE0001248FCF72BFC4FF4FA70FBF778FD1048E1
:104FF000FCF724FC4FF4FA70FBF771FD0B48FCF74B
:105000001DFC4FF4FA70FBF76AFD0948FCF716FC2B
:105010004FF4FA70FBF763FD0648FCF70FFC052020
:10502000FBF75DFD10BD0000480000200000344388
:105030000000024300008C4210B51248FCF73AFC15
:105040001048FCF719FCC820FBF749FD0E48FCF797
:1050500031FC0D48FCF710FCC820FBF740FD0B4865
:10506000FCF7ECFB0948FCF743FCC820FBF737FDD5
:105070000548FCF7E3FB0448FCF73AFCC820FBF7C3
:105080002EFD10BD0000A0410000B44200002043EE
:1050900038B5FBF747F80F2190FBF1F201FB120442
:1050A0000F2C11D2DFE804F008111A232C353E47EB
:1050B0005059626B747D8600444840238022002151
:1050C00000900846FCF760F97DE0414840238022CB
:1050D000002100900846FCF757F974E03D48402352
:1050E0008022002100900846FCF74EF96BE03A4818
:1050F00040238022002100900846FCF745F962E039
:10510000364840238022002100900846FCF73CF9F5
:1051100059E0334840238022002100900846FCF7E4
:1051200033F950E02F4840238022002100900846A8
:10513000FCF72AF947E02C48402380220021009008
:105140000846FCF721F93EE0284840238022002150
:1051500000900846FCF718F935E0254840238022E6
:10516000002100900846FCF70FF92CE0214840236D
:105170008022002100900846FCF706F923E01E4833
:1051800040238022002100900846FCF7FDF81AE039
:105190001A4840238022002100900846FCF7F4F8CA
:1051A00011E0174840238022002100900846FCF7B8
:1051B000EBF808E0134840238022002100900846C5
:1051C000FCF7E2F800BF00BF38BD00009C92000869
:1051D0009C9600089C9A00089C9E00089CA20008CF
:1051E0009CA600089CAA00089CAE00089CB200087F
:1051F0009CB600089CBA00089CBE00089CC200082F
:105200009CC600089CCA000838B500259FE06D1CAC
:10521000FAF788FF0F2190FBF1F201FB12040F2C2B
:1052200011D2DFE804F008111A232C353E475059FB
:10523000626B747D86004A484023802200210090E2
:105240000846FCF7A1F87DE0464840238022002173
:1052500000900846FCF798F874E043484023802209
:10526000002100900846FCF78FF86BE03F48402390
:105270008022002100900846FCF786F862E03C4856
:1052800040238022002100900846FCF77DF859E079
:10529000384840238022002100900846FCF774F82B
:1052A00050E0354840238022002100900846FCF75A
:1052B0006BF847E0314840238022002100900846E7
:1052C000FCF762F83EE02E48402380220021009047
:1052D0000846FCF759F835E02A484023802200218F
:1052E00000900846FCF750F82CE027484023802225
:1052F000002100900846FCF747F823E023484023AC
:105300008022002100900846FCF73EF81AE0204871
:1053100040238022002100900846FCF735F811E078
:105320001C4840238022002100900846FCF72CF8FE
:1053300008E0194840238022002100900846FCF72D
:1053400023F800BF00BF0120FBF7C9FB00BF192DE8
:10535000FFF65DAFFFF79CFE30201049087038BDA6
:105360009C9200089C9600089C9A00089C9E00084D
:105370009CA200089CA600089CAA00089CAE0008FD
:105380009CB200089CB600089CBA00089CBE0008AD
:105390009CC200089CC600089CCA0008950000201A
:1053A00010B5FBF7C3FFFCF787F830200149087000
:1053B00010BD00009500002000000000000000006B
:1053C0000000000000000000000000F800000000E5
:1053D000000000333000000000160E00160E000022
:1053E000000000000000000040C07840C07840008D
:1053F000043F04043F040400007088FC08300000EF
:10540000001820FF211E0000F008F000E018000046
:1054100000211C031E211E0000F0088870000000FF
:105420001E21232419272110000000160E00000061
:105430000000000000000000000000E0180402006E
:10544000000000071820400000020418E0000000DF
:105450000040201807000000404080F080404000DD
:105460000202010F01020200000000F00000000033
:105470000101011F01010100000000000000000007
:1054800000B07000000000000000000000000000FC
:105490000001010101010101000000000000000005
:1054A00000303000000000000000000080601804A0
:1054B000006018060100000000E010080810E0007D
:1054C000000F102020100F00001010F80000000046
:1054D0000020203F2020000000700808088870008D
:1054E000003028242221300000300888884830000D
:1054F0000018202020110E000000C02010F800002D
:1055000000070424243F240000F8088888080800C5
:105510000019212020110E0000E0108888180000DA
:10552000000F112020110E0000380808C8380800AC
:105530000000003F0000000000708808088870002C
:10554000001C222121221C0000E010080810E000AD
:105550000000312222110F00000000C0C000000036
:105560000000003030000000000000C0C00000005B
:10557000000080B070000000000080402010080093
:10558000000102040810200040404040404040001C
:1055900004040404040404000008102040800000F7
:1055A0000020100804020100007048080808F000FC
:1055B0000000003036010000C030C828E810E000CC
:1055C0000718272423140B000000C038E000000057
:1055D000203C23020227382008F8888888700000C1
:1055E000203F202020110E00C03008080808380095
:1055F000071820202010080008F808080810E0000C
:10560000203F202020100F0008F88888E8081000AC
:10561000203F20202320180008F88888E808100080
:10562000203F200003000000C030080808380000B8
:1056300007182020221E020008F808000008F808B9
:10564000203F210101213F20000808F80808000040
:105650000020203F2020000000000808F808080073
:10566000C08080807F00000008F888C028180800EB
:10567000203F20012638200008F808000000000024
:10568000203F20202020300008F8F800F8F808001B
:10569000203F003F003F200008F830C00008F80815
:1056A000203F200007183F00E01008080810E00025
:1056B0000F10202020100F0008F808080808F0003C
:1056C000203F210101010000E01008080810E0005F
:1056D0000F18242438504F0008F8888888887000F4
:1056E000203F2000030C3020007088080808380094
:1056F0000038202121221C00180808F8080818008A
:105700000000203F2000000008F808000008F8080A
:10571000001F202020201F000878880000C83808BB
:10572000000007380E010000F80800F80008F80033
:10573000033C0700073C03000818688080681808CD
:1057400020302C03032C30200838C800C83808004B
:105750000000203F2000000010080808C83808009A
:105760002038262120201800000000FE020202003E
:105770000000007F40404000000C30C000000000EE
:10578000000000010638C00000020202FE00000016
:10579000004040407F000000002010080408102056
:1057A00000000000000000000000000000000000F9
:1057B00080808080808080800002040800000000DB
:1057C00000000000000000000000808080800000D9
:1057D0000019242222223F2008F8008080000000C7
:1057E000003F112020110E0000000080808000008A
:1057F000000E112020201100000000808088F80099
:10580000000E112020103F200000808080800000CA
:10581000001F222222221300008080F0888888182E
:105820000020203F20200000000080808080800039
:10583000006B94949493600008F8008080800000CE
:10584000203F210000203F200080989800000000A9
:105850000020203F202000000000008098980000D9
:1058600000C08080807F000008F8000080808000F9
:10587000203F24022D302000000808F8000000001E
:105880000020203F202000008080808080808000D9
:10589000203F20003F20003F0080800080800000EB
:1058A00000203F2100203F200000808080800000F9
:1058B000001F202020201F0080800080800000002A
:1058C00080FFA12020110E00000000808080800059
:1058D000000E112020A0FF8080808000808080004A
:1058E00020203F2120000100000080808080800077
:1058F0000033242424241900008080E080800000EC
:105900000000001F20200000808000000080800038
:10591000001F202020103F20808080000080808099
:1059200000010E3008060100808000800080808029
:105930000F300C030C300F0000808000808080004E
:105940000020312E0E312000808080000080808079
:1059500080818E7018060100008080808080800029
:105960000021302C2221300000000000807C020247
:1059700000000000003F404000000000FF00000069
:1059800000000000FF0000000002027C8000000018
:105990000040403F00000000008040408000008048
:1059A00000000000000101000000000000000000F5
:1059B000002F000000000700070000147F147F1470
:1059C00000242A7F2A1200231308646200364955F6
:1059D000225000000007000000001C2241000000CF
:1059E00041221C000014083E08140008083E080864
:1059F000000000A0600000080808080800006060BF
:105A00000000002010080402003E5149453E0000FD
:105A1000427F4000004261514946002141454B31DF
:105A2000001814127F10002745454539003C4A49AB
:105A3000493000017109050300364949493600061D
:105A40004949291E00003636000000005636000085
:105A50000008142241000014141414140000412200
:105A60001408000201510906003E4955592E007CD8
:105A70001211127C007F49494936003E41414122C2
:105A8000007F4141221C007F49494941007F0909AB
:105A90000901003E4149497A007F0808087F00005B
:105AA000417F4100002040413F01007F0814224116
:105AB000007F40404040007F020C027F007F0408CE
:105AC000107F003E4141413E007F09090906003E2A
:105AD0004151215E007F0919294600464949493153
